{
  "_format": "hh3-artifact-1",
  "contractName": "ZKPassPaymaster",
  "sourceName": "contracts/ZKPassPaymaster.sol",
  "abi": [
    {
      "inputs": [],
      "stateMutability": "nonpayable",
      "type": "constructor"
    },
    {
      "anonymous": false,
      "inputs": [
        {
          "indexed": true,
          "internalType": "address",
          "name": "user",
          "type": "address"
        }
      ],
      "name": "Sponsored",
      "type": "event"
    },
    {
      "inputs": [],
      "name": "owner",
      "outputs": [
        {
          "internalType": "address",
          "name": "",
          "type": "address"
        }
      ],
      "stateMutability": "view",
      "type": "function"
    },
    {
      "inputs": [
        {
          "internalType": "address",
          "name": "user",
          "type": "address"
        }
      ],
      "name": "sponsor",
      "outputs": [],
      "stateMutability": "nonpayable",
      "type": "function"
    },
    {
      "inputs": [],
      "name": "withdraw",
      "outputs": [],
      "stateMutability": "nonpayable",
      "type": "function"
    },
    {
      "stateMutability": "payable",
      "type": "receive"
    }
  ],
  "bytecode": "0x6080604052348015600e575f5ffd5b505f80546001600160a01b0319163317905561022c8061002d5f395ff3fe608060405260043610610036575f3560e01c80633ccfd60b14610041578063766c4f37146100575780638da5cb5b14610076575f5ffd5b3661003d57005b5f5ffd5b34801561004c575f5ffd5b506100556100b0565b005b348015610062575f5ffd5b506100556100713660046101c9565b610193565b348015610081575f5ffd5b505f54610094906001600160a01b031681565b6040516001600160a01b03909116815260200160405180910390f35b5f546001600160a01b031633146100fa5760405162461bcd60e51b81526020600482015260096024820152682737ba1037bbb732b960b91b60448201526064015b60405180910390fd5b5f80546040514792916001600160a01b03169083908381818185875af1925050503d805f8114610145576040519150601f19603f3d011682016040523d82523d5f602084013e61014a565b606091505b505090508061018f5760405162461bcd60e51b815260206004820152601160248201527015da5d1a191c985dd85b0819985a5b1959607a1b60448201526064016100f1565b5050565b6040516001600160a01b038216907f8b334eb31946f77fe126b1416618ae5c582959c071da58df976a5f670998e67a905f90a250565b5f602082840312156101d9575f5ffd5b81356001600160a01b03811681146101ef575f5ffd5b939250505056fea2646970667358221220952d5f85504808ffc2cb09f49c343ed3704414b64bbc0948462ed7a517a8822264736f6c634300081c0033",
  "linkReferences": {},
  "deployedLinkReferences": {},
  "immutableReferences": {},
  "inputSourceName": "project/contracts/ZKPassPaymaster.sol",
  "buildInfoId": "solc-0_8_28-ef5d70a80b90a0639f24fb51f6557c0adbbdd68b"
}