{
  "_format": "hh3-artifact-1",
  "contractName": "ZKPassFactory",
  "sourceName": "contracts/ZKPassFactory.sol",
  "abi": [
    {
      "inputs": [],
      "stateMutability": "nonpayable",
      "type": "constructor"
    },
    {
      "anonymous": false,
      "inputs": [
        {
          "indexed": true,
          "internalType": "address",
          "name": "campaign",
          "type": "address"
        },
        {
          "indexed": false,
          "internalType": "bytes32",
          "name": "merkleRoot",
          "type": "bytes32"
        }
      ],
      "name": "CampaignCreated",
      "type": "event"
    },
    {
      "inputs": [
        {
          "internalType": "uint256",
          "name": "",
          "type": "uint256"
        }
      ],
      "name": "campaigns",
      "outputs": [
        {
          "internalType": "address",
          "name": "contractAddress",
          "type": "address"
        },
        {
          "internalType": "bytes32",
          "name": "merkleRoot",
          "type": "bytes32"
        },
        {
          "internalType": "uint256",
          "name": "createdAt",
          "type": "uint256"
        }
      ],
      "stateMutability": "view",
      "type": "function"
    },
    {
      "inputs": [
        {
          "internalType": "bytes32",
          "name": "merkleRoot",
          "type": "bytes32"
        }
      ],
      "name": "createCampaign",
      "outputs": [
        {
          "internalType": "address",
          "name": "",
          "type": "address"
        }
      ],
      "stateMutability": "nonpayable",
      "type": "function"
    },
    {
      "inputs": [],
      "name": "getCampaigns",
      "outputs": [
        {
          "components": [
            {
              "internalType": "address",
              "name": "contractAddress",
              "type": "address"
            },
            {
              "internalType": "bytes32",
              "name": "merkleRoot",
              "type": "bytes32"
            },
            {
              "internalType": "uint256",
              "name": "createdAt",
              "type": "uint256"
            }
          ],
          "internalType": "struct ZKPassFactory.Campaign[]",
          "name": "",
          "type": "tuple[]"
        }
      ],
      "stateMutability": "view",
      "type": "function"
    },
    {
      "inputs": [],
      "name": "owner",
      "outputs": [
        {
          "internalType": "address",
          "name": "",
          "type": "address"
        }
      ],
      "stateMutability": "view",
      "type": "function"
    }
  ],
  "bytecode": "0x6080604052348015600e575f5ffd5b505f80546001600160a01b031916331790556109d68061002d5f395ff3fe608060405234801561000f575f5ffd5b506004361061004a575f3560e01c8063141961bc1461004e5780638da5cb5b1461008b578063a6b03633146100b5578063b4c0d9cc146100ca575b5f5ffd5b61006161005c366004610329565b6100dd565b604080516001600160a01b0390941684526020840192909252908201526060015b60405180910390f35b5f5461009d906001600160a01b031681565b6040516001600160a01b039091168152602001610082565b6100bd610118565b6040516100829190610340565b61009d6100d8366004610329565b610198565b600181815481106100ec575f80fd5b5f9182526020909120600390910201805460018201546002909201546001600160a01b03909116925083565b60606001805480602002602001604051908101604052809291908181526020015f905b8282101561018f575f848152602090819020604080516060810182526003860290920180546001600160a01b031683526001808201548486015260029091015491830191909152908352909201910161013b565b50505050905090565b5f80546001600160a01b031633146101e25760405162461bcd60e51b81526020600482015260096024820152682737ba1037bbb732b960b91b604482015260640160405180910390fd5b5f82336040516101f19061031c565b9182526001600160a01b03166020820152604001604051809103905ff08015801561021e573d5f5f3e3d5ffd5b50604080516060810182526001600160a01b038381168083526020808401898152428587019081526001805480820182555f9190915295517fb10e2d527612073b26eecdfd717e6a320cf44b4afac2b0732d9fcbe2b7fa0cf6600390970296870180546001600160a01b0319169190961617909455517fb10e2d527612073b26eecdfd717e6a320cf44b4afac2b0732d9fcbe2b7fa0cf785015591517fb10e2d527612073b26eecdfd717e6a320cf44b4afac2b0732d9fcbe2b7fa0cf8909301929092559151868152929350917ff5b2d101cbdf7d94c81fa9c48970b05872b366b9109f42ed8bc56f207cdcb9dd910160405180910390a292915050565b6105fc806103a583390190565b5f60208284031215610339575f5ffd5b5035919050565b602080825282518282018190525f918401906040840190835b8181101561039957835180516001600160a01b03168452602080820151818601526040918201519185019190915290930192606090920191600101610359565b50909594505050505056fe60c060405234801561000f575f5ffd5b506040516105fc3803806105fc83398101604081905261002e91610045565b6080919091526001600160a01b031660a05261007f565b5f5f60408385031215610056575f5ffd5b825160208401519092506001600160a01b0381168114610074575f5ffd5b809150509250929050565b60805160a0516105506100ac5f395f609801525f8181605e015281816101ef015261034601526105505ff3fe608060405234801561000f575f5ffd5b5060043610610055575f3560e01c80632eb4a7ab146100595780638da5cb5b14610093578063b391c508146100d2578063c18b065e146100e7578063c884ef831461010a575b5f5ffd5b6100807f000000000000000000000000000000000000000000000000000000000000000081565b6040519081526020015b60405180910390f35b6100ba7f000000000000000000000000000000000000000000000000000000000000000081565b6040516001600160a01b03909116815260200161008a565b6100e56100e0366004610444565b61012c565b005b6100fa6100f536600461049e565b6102b2565b604051901515815260200161008a565b6100fa6101183660046104ed565b5f6020819052908152604090205460ff1681565b335f9081526020819052604090205460ff16156101825760405162461bcd60e51b815260206004820152600f60248201526e105b1c9958591e4818db185a5b5959608a1b60448201526064015b60405180910390fd5b6040516bffffffffffffffffffffffff193360601b1660208201525f906034016040516020818303038152906040528051906020012090505f61021a8484808060200260200160405190810160405280939291908181526020018383602002808284375f920191909152507f0000000000000000000000000000000000000000000000000000000000000000925086915061037c9050565b9050806102595760405162461bcd60e51b815260206004820152600d60248201526c24b73b30b634b210383937b7b360991b6044820152606401610179565b335f8181526020819052604090819020805460ff19166001179055517fd8138f8a3f377c5259ca548e70e4c2de94f129f5a11036a15b69513cba2b426a906102a49042815260200190565b60405180910390a250505050565b6001600160a01b0383165f9081526020819052604081205460ff16156102d957505f610375565b6040516bffffffffffffffffffffffff19606086901b1660208201525f906034016040516020818303038152906040528051906020012090506103718484808060200260200160405190810160405280939291908181526020018383602002808284375f920191909152507f0000000000000000000000000000000000000000000000000000000000000000925085915061037c9050565b9150505b9392505050565b5f826103888584610391565b14949350505050565b5f81815b84518110156103cb576103c1828683815181106103b4576103b4610506565b60200260200101516103d3565b9150600101610395565b509392505050565b5f8183106103ed575f828152602084905260409020610375565b505f9182526020526040902090565b5f5f83601f84011261040c575f5ffd5b50813567ffffffffffffffff811115610423575f5ffd5b6020830191508360208260051b850101111561043d575f5ffd5b9250929050565b5f5f60208385031215610455575f5ffd5b823567ffffffffffffffff81111561046b575f5ffd5b610477858286016103fc565b90969095509350505050565b80356001600160a01b0381168114610499575f5ffd5b919050565b5f5f5f604084860312156104b0575f5ffd5b6104b984610483565b9250602084013567ffffffffffffffff8111156104d4575f5ffd5b6104e0868287016103fc565b9497909650939450505050565b5f602082840312156104fd575f5ffd5b61037582610483565b634e487b7160e01b5f52603260045260245ffdfea2646970667358221220d78128afa7b85304608f8311267e8bf535df99f41eb5b911120b221c6158d11a64736f6c634300081c0033a26469706673582212203505ed11630b55ee58fcda6080d46d3cb4686c7c107ebff49d28e506bf48638664736f6c634300081c0033",
  "linkReferences": {},
  "deployedLinkReferences": {},
  "immutableReferences": {},
  "inputSourceName": "project/contracts/ZKPassFactory.sol",
  "buildInfoId": "solc-0_8_28-7d9aad18a72656c6d06a4dce6195692fd1d47289"
}