{
  "_format": "hh3-artifact-1",
  "contractName": "ZKPassFactory",
  "sourceName": "contracts/ZKPassFactory.sol",
  "abi": [
    {
      "inputs": [],
      "stateMutability": "nonpayable",
      "type": "constructor"
    },
    {
      "anonymous": false,
      "inputs": [
        {
          "indexed": true,
          "internalType": "address",
          "name": "campaign",
          "type": "address"
        },
        {
          "indexed": false,
          "internalType": "bytes32",
          "name": "merkleRoot",
          "type": "bytes32"
        }
      ],
      "name": "CampaignCreated",
      "type": "event"
    },
    {
      "inputs": [
        {
          "internalType": "uint256",
          "name": "",
          "type": "uint256"
        }
      ],
      "name": "campaigns",
      "outputs": [
        {
          "internalType": "address",
          "name": "contractAddress",
          "type": "address"
        },
        {
          "internalType": "bytes32",
          "name": "merkleRoot",
          "type": "bytes32"
        },
        {
          "internalType": "uint256",
          "name": "createdAt",
          "type": "uint256"
        }
      ],
      "stateMutability": "view",
      "type": "function"
    },
    {
      "inputs": [
        {
          "internalType": "bytes32",
          "name": "merkleRoot",
          "type": "bytes32"
        }
      ],
      "name": "createCampaign",
      "outputs": [
        {
          "internalType": "address",
          "name": "",
          "type": "address"
        }
      ],
      "stateMutability": "nonpayable",
      "type": "function"
    },
    {
      "inputs": [],
      "name": "getCampaigns",
      "outputs": [
        {
          "components": [
            {
              "internalType": "address",
              "name": "contractAddress",
              "type": "address"
            },
            {
              "internalType": "bytes32",
              "name": "merkleRoot",
              "type": "bytes32"
            },
            {
              "internalType": "uint256",
              "name": "createdAt",
              "type": "uint256"
            }
          ],
          "internalType": "struct ZKPassFactory.Campaign[]",
          "name": "",
          "type": "tuple[]"
        }
      ],
      "stateMutability": "view",
      "type": "function"
    },
    {
      "inputs": [],
      "name": "owner",
      "outputs": [
        {
          "internalType": "address",
          "name": "",
          "type": "address"
        }
      ],
      "stateMutability": "view",
      "type": "function"
    }
  ],
  "bytecode": "0x6080604052348015600e575f5ffd5b505f80546001600160a01b03191633179055610ba88061002d5f395ff3fe608060405234801561000f575f5ffd5b506004361061004a575f3560e01c8063141961bc1461004e5780638da5cb5b1461008b578063a6b03633146100b5578063b4c0d9cc146100ca575b5f5ffd5b61006161005c3660046102e0565b6100dd565b604080516001600160a01b0390941684526020840192909252908201526060015b60405180910390f35b5f5461009d906001600160a01b031681565b6040516001600160a01b039091168152602001610082565b6100bd610118565b60405161008291906102f7565b61009d6100d83660046102e0565b610198565b600181815481106100ec575f80fd5b5f9182526020909120600390910201805460018201546002909201546001600160a01b03909116925083565b60606001805480602002602001604051908101604052809291908181526020015f905b8282101561018f575f848152602090819020604080516060810182526003860290920180546001600160a01b031683526001808201548486015260029091015491830191909152908352909201910161013b565b50505050905090565b5f5f82336040516101a8906102d3565b9182526001600160a01b03166020820152604001604051809103905ff0801580156101d5573d5f5f3e3d5ffd5b50604080516060810182526001600160a01b038381168083526020808401898152428587019081526001805480820182555f9190915295517fb10e2d527612073b26eecdfd717e6a320cf44b4afac2b0732d9fcbe2b7fa0cf6600390970296870180546001600160a01b0319169190961617909455517fb10e2d527612073b26eecdfd717e6a320cf44b4afac2b0732d9fcbe2b7fa0cf785015591517fb10e2d527612073b26eecdfd717e6a320cf44b4afac2b0732d9fcbe2b7fa0cf8909301929092559151868152929350917ff5b2d101cbdf7d94c81fa9c48970b05872b366b9109f42ed8bc56f207cdcb9dd910160405180910390a292915050565b6108178061035c83390190565b5f602082840312156102f0575f5ffd5b5035919050565b602080825282518282018190525f918401906040840190835b8181101561035057835180516001600160a01b03168452602080820151818601526040918201519185019190915290930192606090920191600101610310565b50909594505050505056fe60c060405234801561000f575f5ffd5b5060405161081738038061081783398101604081905261002e91610045565b6080919091526001600160a01b031660a05261007f565b5f5f60408385031215610056575f5ffd5b825160208401519092506001600160a01b0381168114610074575f5ffd5b809150509250929050565b60805160a05161075d6100ba5f395f818160a301526102d601525f8181606901528181610208015281816103f70152610553015261075d5ff3fe608060405234801561000f575f5ffd5b5060043610610060575f3560e01c80632eb4a7ab146100645780638da5cb5b1461009e578063b391c508146100dd578063b489f631146100f2578063c18b065e14610105578063c884ef8314610128575b5f5ffd5b61008b7f000000000000000000000000000000000000000000000000000000000000000081565b6040519081526020015b60405180910390f35b6100c57f000000000000000000000000000000000000000000000000000000000000000081565b6040516001600160a01b039091168152602001610095565b6100f06100eb366004610651565b61014a565b005b6100f06101003660046106ab565b6102cb565b6101186101133660046106ab565b6104c4565b6040519015158152602001610095565b6101186101363660046106fa565b5f6020819052908152604090205460ff1681565b335f9081526020819052604090205460ff16156101a05760405162461bcd60e51b815260206004820152600f60248201526e105b1c9958591e4818db185a5b5959608a1b60448201526064015b60405180910390fd5b6040516001600160601b03193360601b1660208201525f906034016040516020818303038152906040528051906020012090505f6102338484808060200260200160405190810160405280939291908181526020018383602002808284375f920191909152507f000000000000000000000000000000000000000000000000000000000000000092508691506105899050565b9050806102725760405162461bcd60e51b815260206004820152600d60248201526c24b73b30b634b210383937b7b360991b6044820152606401610197565b335f8181526020819052604090819020805460ff19166001179055517fd8138f8a3f377c5259ca548e70e4c2de94f129f5a11036a15b69513cba2b426a906102bd9042815260200190565b60405180910390a250505050565b336001600160a01b037f000000000000000000000000000000000000000000000000000000000000000016146103345760405162461bcd60e51b815260206004820152600e60248201526d139bdd08185d5d1a1bdc9a5e995960921b6044820152606401610197565b6001600160a01b0383165f9081526020819052604090205460ff161561038e5760405162461bcd60e51b815260206004820152600f60248201526e105b1c9958591e4818db185a5b5959608a1b6044820152606401610197565b6040516001600160601b0319606085901b1660208201525f906034016040516020818303038152906040528051906020012090505f6104228484808060200260200160405190810160405280939291908181526020018383602002808284375f920191909152507f000000000000000000000000000000000000000000000000000000000000000092508691506105899050565b9050806104615760405162461bcd60e51b815260206004820152600d60248201526c24b73b30b634b210383937b7b360991b6044820152606401610197565b6001600160a01b0385165f8181526020819052604090819020805460ff19166001179055517fd8138f8a3f377c5259ca548e70e4c2de94f129f5a11036a15b69513cba2b426a906104b59042815260200190565b60405180910390a25050505050565b6001600160a01b0383165f9081526020819052604081205460ff16156104eb57505f610582565b6040516001600160601b0319606086901b1660208201525f9060340160405160208183030381529060405280519060200120905061057e8484808060200260200160405190810160405280939291908181526020018383602002808284375f920191909152507f000000000000000000000000000000000000000000000000000000000000000092508591506105899050565b9150505b9392505050565b5f82610595858461059e565b14949350505050565b5f81815b84518110156105d8576105ce828683815181106105c1576105c1610713565b60200260200101516105e0565b91506001016105a2565b509392505050565b5f8183106105fa575f828152602084905260409020610582565b505f9182526020526040902090565b5f5f83601f840112610619575f5ffd5b50813567ffffffffffffffff811115610630575f5ffd5b6020830191508360208260051b850101111561064a575f5ffd5b9250929050565b5f5f60208385031215610662575f5ffd5b823567ffffffffffffffff811115610678575f5ffd5b61068485828601610609565b90969095509350505050565b80356001600160a01b03811681146106a6575f5ffd5b919050565b5f5f5f604084860312156106bd575f5ffd5b6106c684610690565b9250602084013567ffffffffffffffff8111156106e1575f5ffd5b6106ed86828701610609565b9497909650939450505050565b5f6020828403121561070a575f5ffd5b61058282610690565b634e487b7160e01b5f52603260045260245ffdfea26469706673582212202b57aa155948696e4a1044c58a4ea282ca270c28984d7ae726b98e0e03db508a64736f6c634300081c0033a26469706673582212208d3433c7be335827a928dcd33a3c4f0870485d2dd4f3578b7ccf8ccc97ef60b564736f6c634300081c0033",
  "linkReferences": {},
  "deployedLinkReferences": {},
  "immutableReferences": {},
  "inputSourceName": "project/contracts/ZKPassFactory.sol",
  "buildInfoId": "solc-0_8_28-b5f244db705ff12b7a361c1cf08680bd59d7260b"
}